{
  "contractName": "AmaizingDapp",
  "abi": [
    {
      "constant": true,
      "inputs": [
        {
          "name": "name",
          "type": "string"
        }
      ],
      "name": "checkIfExists",
      "outputs": [
        {
          "name": "",
          "type": "bool"
        }
      ],
      "payable": false,
      "stateMutability": "view",
      "type": "function"
    },
    {
      "constant": false,
      "inputs": [
        {
          "name": "name",
          "type": "string"
        }
      ],
      "name": "registerName",
      "outputs": [],
      "payable": false,
      "stateMutability": "nonpayable",
      "type": "function"
    }
  ],
  "bytecode": "0x608060405234801561001057600080fd5b5061026f806100206000396000f30060806040526004361061004c576000357c0100000000000000000000000000000000000000000000000000000000900463ffffffff1680630830602b14610051578063ab0a59a8146100ba575b600080fd5b34801561005d57600080fd5b506100b8600480360381019080803590602001908201803590602001908080601f016020809104026020016040519081016040528093929190818152602001838380828437820191505050505050919291929050505061013b565b005b3480156100c657600080fd5b50610121600480360381019080803590602001908201803590602001908080601f01602080910402602001604051908101604052809392919081815260200183838082843782019150505050505091929192905050506101c2565b604051808215151515815260200191505060405180910390f35b60016000826040518082805190602001908083835b6020831015156101755780518252602082019150602081019050602083039250610150565b6001836020036101000a038019825116818451168082178552505050505050905001915050908152602001604051809103902060006101000a81548160ff02191690831515021790555050565b600080826040518082805190602001908083835b6020831015156101fb57805182526020820191506020810190506020830392506101d6565b6001836020036101000a038019825116818451168082178552505050505050905001915050908152602001604051809103902060009054906101000a900460ff1690509190505600a165627a7a72305820d5b6f16b54d258f2c82716b9a8caa9e35f671c641687c520e9eba69b1f3dcaf90029",
  "source": "pragma solidity ^0.4.24;\n\ncontract AmaizingDapp {\n    mapping (string => bool) private names;\n\n    function checkIfExists(string name) constant returns (bool) {\n        return names[name];\n    }\n\n    function registerName(string name) {\n        names[name] = true;\n    }\n}\n",
  "sourcePath": "/Users/ryan/amazing-dapp/contracts/AmaizingDapp.sol",
  "compiler": {
    "name": "solc",
    "version": "0.4.24+commit.e67f0147.Emscripten.clang"
  },
  "schemaVersion": "2.0.1",
  "updatedAt": "2018-12-03T15:04:24.912Z"
}